{
  "_format": "hh-sol-artifact-1",
  "contractName": "TokenBalance",
  "sourceName": "contracts/TokenBalance.sol",
  "abi": [
    {
      "inputs": [
        {
          "internalType": "address",
          "name": "walletAddress",
          "type": "address"
        },
        {
          "internalType": "address[]",
          "name": "tokenAddress",
          "type": "address[]"
        }
      ],
      "name": "getBalances",
      "outputs": [
        {
          "components": [
            {
              "internalType": "address",
              "name": "token",
              "type": "address"
            },
            {
              "internalType": "uint256",
              "name": "balance",
              "type": "uint256"
            }
          ],
          "internalType": "struct TokenBalance.Balance[]",
          "name": "",
          "type": "tuple[]"
        }
      ],
      "stateMutability": "view",
      "type": "function"
    }
  ],
  "bytecode": "0x608060405234801561001057600080fd5b506103b3806100206000396000f3fe608060405234801561001057600080fd5b506004361061002b5760003560e01c80636a385ae914610030575b600080fd5b61004361003e3660046101f5565b610059565b60405161005091906102cd565b60405180910390f35b60606000825167ffffffffffffffff811115610077576100776101df565b6040519080825280602002602001820160405280156100bc57816020015b60408051808201909152600080825260208201528152602001906001900390816100955790505b50905060005b83518110156101bb5760008482815181106100df576100df610325565b60209081029190910101516040516370a0823160e01b81526001600160a01b0388811660048301529192506000918316906370a082319060240160206040518083038186803b15801561013157600080fd5b505afa158015610145573d6000803e3d6000fd5b505050506040513d601f19601f82011682018060405250810190610169919061033b565b90506040518060400160405280836001600160a01b031681526020018281525084848151811061019b5761019b610325565b6020026020010181905250505080806101b390610354565b9150506100c2565b509392505050565b80356001600160a01b03811681146101da57600080fd5b919050565b634e487b7160e01b600052604160045260246000fd5b6000806040838503121561020857600080fd5b610211836101c3565b915060208084013567ffffffffffffffff8082111561022f57600080fd5b818601915086601f83011261024357600080fd5b813581811115610255576102556101df565b8060051b604051601f19603f8301168101818110858211171561027a5761027a6101df565b60405291825284820192508381018501918983111561029857600080fd5b938501935b828510156102bd576102ae856101c3565b8452938501939285019261029d565b8096505050505050509250929050565b602080825282518282018190526000919060409081850190868401855b8281101561031857815180516001600160a01b031685528601518685015292840192908501906001016102ea565b5091979650505050505050565b634e487b7160e01b600052603260045260246000fd5b60006020828403121561034d57600080fd5b5051919050565b600060001982141561037657634e487b7160e01b600052601160045260246000fd5b506001019056fea2646970667358221220440f54cb004736c39464f67aebc0157656175257426489bf878e148f535755ba64736f6c63430008090033",
  "linkReferences": {},
  "deployedLinkReferences": {}
}